:020000040800F2
:100000000050002021020008270200082B020008EF
:100010009D020008A1020008E9020008000000009B
:100020000000000000000000000000003103000894
:100030003503000800000000390300083D030008F4
:100040004D0300084D0300084D0300084D03000850
:100050004D0300084D0300084D0300084D03000840
:100060004D0300084D0300084D0300084D03000830
:100070004D0300084D0300084D0300084D03000820
:100080004D0300084D0300084D0300084D03000810
:100090004D0300084D0300084D0300084D03000800
:1000A0004D0300084D0300084D0300084D030008F0
:1000B0004D0300084D0300084D0300084D030008E0
:1000C0004D0300084D0300084D0300084D030008D0
:1000D0004D0300084D0300084D0300084D030008C0
:1000E0004D0300084D0300084D0300080000000008
:1000F0000000000000000000000000000000000000
:1001000000000000000000005FF808F100B583B0B7
:1001100000F0ACF9304B314A1360314A1360314B77
:10012000314A03E052F8041B43F8041B2F498B4269
:10013000F8D32A4B1A682E4B9A4200D0FEE7284B80
:100140001A682C4B9A42F9D1234B2B4A13602B4A45
:1001500013602B4B02E0002243F8042B294A934200
:10016000F9D3254B1B6813B9244B1B6803B1FEE779
:1001700000F088F9694601A800F022F9224C234BCF
:10018000E41AA410002504E0204B53F825309847CA
:100190000135AC42F8DC1E4C1E4BE41AA4100025BD
:1001A00004E01C4B53F8253098470135AC42F8DC8D
:1001B0000099019800F0CCFA0546174C174BE41A49
:1001C000A41004E0013C154B53F824309847002C50
:1001D000F8DC284600F0D0F8BABADECA00000020E9
:1001E0008400002000000020841100088800002006
:1001F0007856341232547698880000202C01002062
:1002000088000020300100207803000878030008EF
:1002100078030008780300087803000878030008D2
:1002200008B5FFF773FF00BEFEE71EF0040F0CBF1A
:10023000EFF30880EFF309807146414A10472DE93A
:10024000F04182B004460D46124B5F6BD3F8388004
:100250009E6A1B6B13F0020F03D00E4BDB6A002B60
:100260000BDB0D4800F0B4F8009543463A463146A2
:10027000204600F00BF900BEFEE74BF6AB6100F044
:100280007FF90028EDD0034B4FF00042DA6202B054
:10029000BDE8F08100ED00E02411000800BEFEE79B
:1002A0001EF0040F0CBFEFF30880EFF309807146D6
:1002B000244A10472DE9F04182B004460D46084B10
:1002C0005F6BD3F838809E6A064800F081F800958D
:1002D00043463A463146204600F0D8F800BEFEE7D5
:1002E00000ED00E0341100081EF0040F0CBFEFF326
:1002F0000880EFF309807146134A10472DE9F04159
:1003000082B004460D46084B5F6BD3F838809E6A76
:10031000064800F05DF8009543463A4631462046CF
:1003200000F0B4F800BEFEE700ED00E04011000868
:1003300000BEFEE700BEFEE700BEFEE7704700001D
:100340003F020008B5020008FD02000800BEFEE7FB
:10035000841100080000002088000020841100089B
:100360000000000000000000880000203001002094
:08037000000000000000000085
:10037800FEE7000008B503460C4A12685AB10B4A5A
:100388001068033323F003030344094A934206D851
:10039800064A136008BD054A06491160EFE700F0F8
:1003A800D5F90C2303604FF0FF30F3E78C000020F1
:1003B800004C00203001002001230360014B0B603A
:1003C800704700BF040000200FB400B583B004AB31
:1003D80053F8042B01938021074800F0E9F900281D
:1003E80004DC03B05DF804EB04B070470146024832
:1003F80000F034F8F5E700BF940000202DE9F04341
:1004080085B004460F46435633BB0425284621468B
:10041800ABBE0446384605B0BDE8F08314F9010BBD
:1004280004AA1A4402F8100C0133AB42F6D304AA0A
:100438001344002203F8102C4FF00408E946404604
:100448004946ABBE8046761B002EE3D03546102EBB
:1004580028BF10250023E8E70E46F5E708B5FFF7A3
:10046800CDFF08BD08B500F0FDF8024A024B9A60BE
:1004780008BD00BF0000000800ED00E008B500F06E
:1004880019F908BDF8B504460D4617461E46274813
:10049800FFF79AFF21682648FFF796FF616825480D
:1004A800FFF792FFA1682448FFF78EFFE168234811
:1004B800FFF78AFF21692248FFF786FF6169214813
:1004C800FFF782FFA1692048FFF77EFFE1691F4817
:1004D800FFF77AFF1E48FFF777FF29461D48FFF709
:1004E80073FF1D4CE16A1D48FFF76EFF216B1C4826
:1004F800FFF76AFFE16B1B48FFF766FF15F0800FF7
:100508000AD115F4004F0CD11748FFF75DFF069983
:100518001648FFF759FFF8BD39461548FFF754FF4D
:10052800EFE731461348FFF74FFFEDE708100008E3
:100538001810000828100008381000084810000893
:100548005810000868100008781000088810000883
:1005580098100008A410000800ED00E0B41000088E
:10056800C4100008D4100008041100080C11000879
:10057800E4100008F410000883691A888A4201D040
:10058800002070470268033A012A01D90020704709
:10059800023383610120704782B0002301930093E6
:1005A8002C4A136843F4803313602A4B1B6803F406
:1005B80000330093019B01330193009B1BB9019BFE
:1005C800B3F5A06FF1D1234B1B6813F4003F06D09D
:1005D80001230093009B012B04D002B07047002335
:1005E8000093F7E71C4B1A6842F010021A601A6869
:1005F80022F003021A601A6842F002021A60A3F598
:1006080080535A685A605A685A605A6842F480623D
:100618005A605A6822F47C125A605A6842F4E81206
:100628005A601A6842F080721A600A4B1B6813F00D
:10063800007FFAD0074B5A6822F003025A605A68C2
:1006480042F002025A60034B5B6803F00C03082B6C
:10065800F9D1C2E7001002400020024008B5FFF7B8
:100668009BFF08BD08B5104B1A6842F001021A60DA
:1006780059680E4A0A405A601A6822F0847222F4B5
:1006880080321A601A6822F480221A605A6822F4AA
:10069800FE025A604FF41F029A60FFF7DFFF044B17
:1006A8004FF000629A6008BD001002400000FFF899
:1006B80000ED00E01F4B5B6803F00C03042B15D022
:1006C800082B17D01BB11C4B1C4A1A6002E01A4BAE
:1006D8001A4A1A60174B5B68C3F30313184AD35CB2
:1006E800DAB215490B68D3400B607047124B134AB6
:1006F8001A60EFE70F4A53685268C3F38343023323
:1007080012F4803F05D10F4A02FB03F30A4A136033
:10071800E0E7084A526812F4003F05D0094A02FB94
:1007280003F3054A1360D5E7044A02FB03F3024AC0
:100738001360CFE7001002401C00002000127A006E
:100748000C00002000093D00FEE70000014B18687E
:10075800704700BF2000002030B5141E05469BB02E
:10076800184605DA8B234FF0FF302B601BB030BDE5
:100778004FF40273ADF80C300CBF234604F1FF337D
:10078800029305934FF6FF73024600910491ADF86A
:100798000E3069461E9B284600F074F8431CBCBF07
:1007A8008B232B60002CE1D00022009B1A70DDE720
:1007B80007B5009313460A46014603480068FFF749
:1007C800CBFF03B05DF804FB200000202DE9F047C3
:1007D8008E6882469E420C4690461F4638D88A89C3
:1007E80012F4906F32D0256809690133A5EB01092D
:1007F80065694B4405EB450505EBD5756D109D42C4
:1008080038BF1D46530531D5294600F053FB06462F
:1008180050B90C234FF0FF30CAF80030A38943F0D9
:100828004003A381BDE8F0874A46216900F0CEFA6B
:10083800A38923F4906343F08003A38126614E4487
:1008480026603E466561A5EB0905A560BE4200D954
:100858003E4632464146206800F0C6FAA368226840
:100868009B1B32440020A3602260DBE72A4600F08D
:100878007BFB06460028E1D15046216900F0CEFAFC
:10088800C7E700002DE9F04F98468B8907461B06FD
:100898000D4614469DB00ED50B6963B9402100F092
:1008A80009FB2860286120B90C233B604FF0FF301A
:1008B800D1E040236B610023099320238DF8293070
:1008C80030234FF00109CDF80C80DFF8A4818DF8B2
:1008D8002A3023469A4613F8012B0AB1252AF9D162
:1008E800BAEB040B0BD05B46224629463846FFF785
:1008F8006DFF013000F0AA80099A5A4409929AF8CB
:100908000030002B00F0A28000234FF0FF32CDE929
:1009180005230AF1010A049307938DF853301A93BB
:100928005446052214F8011B514800F041FA049A74
:10093800D8B9D00644BF20238DF85330110744BFDF
:100948002B238DF853309AF800302A2B15D05446B3
:1009580000204FF00A0C079A214611F8013B303B62
:10096800092B4ED9B0B1079214E0A0EB080309FA9D
:1009780003F31343A2460493D2E7039B191D1B6894
:100988000391002BBBBF5B4242F00202079307931F
:10099800B8BF049223782E2B0CD163782A2B35D13B
:1009A800039B02341A1D1B680392002BB8BF4FF03B
:1009B800FF330593DFF8C8A003225046217800F0E2
:1009C800F7F940B14023A0EB0A0003FA00F0049BBA
:1009D80001340343049314F8011B062225488DF8BB
:1009E800281000F0E5F9002838D0234B1BBB039BE7
:1009F800073323F0070308330393099B3344099310
:100A080067E70C4601200CFB0232A5E700234FF0F4
:100A18000A0C194601340593204610F8012B303A88
:100A2800092A03D9002BC5D00591C3E70446012341
:100A38000CFB0121F0E703AB00932A4638460F4B25
:100A480004A9AFF30080421C0646D6D1AB895B06E9
:100A58003FF52CAF09981DB0BDE8F08F03AB0093AC
:100A68002A463846054B04A900F07CF8EBE700BF9E
:100A78004E1100085811000800000000D5070008B2
:100A8800541100082DE9F047164699468A680B6903
:100A980007469342B8BF1346336091F843200C468B
:100AA800DDF820800AB1013333602368990642BF1C
:100AB800336802333360256815F0060506D104F162
:100AC800190AE36832689B1AAB4228DC94F8432081
:100AD800131E226818BF012392062DD449463846B2
:100AE80004F14302C047013020D02368E56803F0D1
:100AF8000603042B18BF002532684FF00006A368D0
:100B080008BFAD1A226908BF25EAE5759342C4BF3C
:100B18009B1AED181A34B5421AD1002008E00123B7
:100B2800524649463846C047013003D14FF0FF309E
:100B3800BDE8F0870135C4E73020E11881F84300AB
:100B48005A1C94F845102244023382F84310C5E732
:100B58000123224649463846C0470130E6D00136CF
:100B6800D9E700002DE9FF470C46277E9146782FEC
:100B780080469A460C9904F1430207D8622F0AD896
:100B8800002F00F0D980582F00F0A48004F142060D
:100B980084F842703AE0A7F16303152BF6D801A058
:100BA80050F823F0050C0008190C0008950B0008F4
:100BB800950B0008950B0008950B0008190C000808
:100BC800950B0008950B0008950B0008950B00087D
:100BD800270D0008490C0008090D0008950B0008AE
:100BE800950B0008490D0008950B0008490C0008F2
:100BF800950B0008950B0008110D00080B6804F10F
:100C080042061A1D1B680A6084F842300123A4E0DA
:100C1800256808682E0600F104030AD505680B60EC
:100C2800002D03DA2D236D4284F843300A235E48F1
:100C380019E015F0400F05680B6018BF2DB2EFE7FB
:100C48000B682568181D0860280601D51D6802E094
:100C58006906FBD51D886F2F0CBF08230A2352484D
:100C6800002184F843106668002EA8BF2168A6609A
:100C7800A4BF21F0040121600DB9002E4DD0164605
:100C8800B5FBF3F103FB1157C75D06F8017D2F464D
:100C9800BB420D46F4D9082B0BD12368DF0708D5D2
:100CA800236961689942DEBF302306F8013C06F1EA
:100CB800FF36921B22614B4621464046CDF800A0E4
:100CC80003AAFFF7DFFE01304CD14FF0FF3004B02C
:100CD800BDE8F087344884F845700E68236856F8F4
:100CE800045B1F060E6014D5D90744BF43F02003E8
:100CF80023601DB9236823F0200323601023AFE786
:100D0800236843F0200323607823284884F845307B
:100D1800E3E75E0648BFADB2E6E71646BBE70B68F9
:100D280026681D1D60690D6035061B6801D51860B1
:100D380002E07106FBD51880002316462361BAE746
:100D48000B681A1D0A601E6800213046626800F0B0
:100D58002FF808B1801B606063682361002384F862
:100D68004330A8E73246494640462369D047013018
:100D7800ABD023689B0713D4E068039B9842B8BFA5
:100D88001846A4E70123324649464046D047013079
:100D98009BD00135E36803995B1AAB42F2DCEBE7C1
:100DA800002504F11906F5E75F1100087011000825
:100DB800034610B5C9B202449342184601D1002037
:100DC80003E0047801338C42F6D110BD0A44914205
:100DD80000F1FF3300D1704710B511F8014B914273
:100DE80003F8014FF9D110BD884210B501EB020498
:100DF80002D98442234607D8431EA14208D011F8DD
:100E0800012B03F8012FF8E7014602448A4200D17A
:100E180010BD13F8014D02F8014DF7E738B5054646
:100E2800002943D051F8043C0C1F002BB8BFE4182C
:100E380000F0D0F81E4A1368104633B96360146096
:100E48002846BDE8384000F0CBB8A3420AD921684B
:100E58006218934201BF1A685B6852182260636087
:100E68000460EDE71A465B680BB1A342FAD9116832
:100E78005018A0420BD120680144501883421160D9
:100E8800DED118685B68014411605360D8E702D965
:100E98000C232B60D4E7206821188B4201BF196806
:100EA8005B680918216063605460C9E738BD00BFFA
:100EB80014010020F8B5CD1C25F0030508350C2DCC
:100EC80038BF0C25002D064601DBA94203D90C23A7
:100ED80033600020F8BD00F07DF821490A68144607
:100EE8009CB9204F3B6823B92146304600F062F890
:100EF80038602946304600F05DF8431C23D10C23A6
:100F08003046336000F06CF8E3E723685B1B17D4C6
:100F18000B2B03D923601C44256004E06368A242BC
:100F28000CBF0B605360304600F05AF804F10B0018
:100F3800231D20F00700C21ACCD01B1AA350C9E702
:100F480022466468CCE7C41C24F00304A042E3D022
:100F5800211A304600F02EF80130DDD1CFE700BF6E
:100F68001401002018010020F8B5074614460E4663
:100F780021B91146BDE8F840FFF79CBF22B9FFF739
:100F88004DFF25462846F8BD00F030F8A0420FD2A4
:100F980021463846FFF78EFF05460028F2D0314635
:100FA8002246FFF713FF31463846FFF737FFE9E7D8
:100FB8003546E7E738B50023054D044608462B605B
:100FC800FFF7D8F9431C02D12B6803B1236038BD61
:100FD8001C010020014800F011B800BF24010020C6
:100FE800014800F00CB800BF2401002051F8043C6F
:100FF800181F002BBCBF0B58C018704770477047AC
:10100800537461636B206672616D653A0A00000073
:10101800205230203D2020253038580A000000009A
:10102800205231203D2020253038580A0000000089
:10103800205232203D2020253038580A0000000078
:10104800205233203D2020253038580A0000000067
:1010580020523132203D20253038580A0000000047
:10106800204C52203D2020253038580A000000002E
:10107800205043203D2020253038580A0000000029
:1010880020505352203D20253038580A00000000D7
:101098004653522F4641523A0A0000002043465315
:1010A80052203D2020253038580A00002048465359
:1010B80052203D2020253038580A0000204446534D
:1010C80052203D2020253038580A00002041465340
:1010D80052203D2020253038580A0000204D4D462A
:1010E8004152203D20253038580A00002042464110
:1010F80052203D2020253038580A00004D6973637E
:101108000A000000204C522F4558435F5245545561
:10111800524E3D20253038580A0000005B48617265
:10112800644661756C745D0A000000005B4275736B
:101138004661756C745D0A005B557361676546614D
:10114800756C745D0A00232D302B2000686C4C00F0
:1011580065666745464700303132333435363738AF
:10116800394142434445460030313233343536370D
:09117800383961626364656600A8
:101184007856341290000020000000000000000097
:1011940000000000010203040607080900A24A0433
:1011A40024000020000000000000000000000000F7
:1011B400000000000000000000000000000000002B
:1011C400000000000000000000000000000000001B
:1011D400000000000000000000000000000000000B
:1011E40000000000000000000000000000000000FB
:1011F40000000000000000000000000000000000EB
:0812040000000000325476984E
:040000050800010DE1
:00000001FF
